{
  "transactions": [
    {
      "hash": "0x13a30e37acc2cd30ee10e867a1392963a9c21d5bf5a616c2034a2b3abaf7298d",
      "transactionType": "CREATE",
      "contractName": "RedeemableCapsule",
      "contractAddress": "0x840748F7Fd3EA956E5f4c88001da5CC1ABCBc038",
      "function": null,
      "arguments": null,
      "transaction": {
        "type": "0x02",
        "from": "0xf39fd6e51aad88f6f4ce6ab8827279cfffb92266",
        "gas": "0x143fdc",
        "value": "0x0",
        "data": "0x608060405234801561001057600080fd5b5061001a3361001f565b61005b565b6001600160a01b0316638b78c6d8198190558060007f8be0079c531659141344cd1fd0a4f28419497f9722a3daafe3b4186f6b6457e08180a350565b6111108061006a6000396000f3fe6080604052600436106101135760003560e01c806389a89002116100a0578063ea66aeb311610064578063ea66aeb314610315578063f04e283e1461034b578063f242432a1461035e578063f2fde38b1461037e578063fee81cf41461039157600080fd5b806389a890021461025b5780638da5cb5b1461027057806394d008ef1461029c578063a22cb465146102bc578063e985e9c5146102dc57600080fd5b806325692962116100e757806325692962146101f45780632eb2c2d6146101fe5780634e1273f41461021e57806354d1f13d1461024b578063715018a61461025357600080fd5b8062fdd58e1461011857806301ffc9a714610165578063031bd4c4146101b25780630e89341c146101c7575b600080fd5b34801561012457600080fd5b50610152610133366004610bca565b679a31110384e0b0c96020526014919091526000908152604090205490565b6040519081526020015b60405180910390f35b34801561017157600080fd5b506101a2610180366004610bf4565b6301ffc9a760e09190911c90811463d9b67a26821417630e89341c9091141790565b604051901515815260200161015c565b3480156101be57600080fd5b50610152600a81565b3480156101d357600080fd5b506101e76101e2366004610c25565b6103c4565b60405161015c9190610c3e565b6101fc6103e5565b005b34801561020a57600080fd5b506101fc610219366004610d1a565b610435565b34801561022a57600080fd5b5061023e610239366004610dd5565b61066d565b60405161015c9190610e41565b6101fc6106dd565b6101fc610719565b34801561026757600080fd5b50610152600181565b34801561027c57600080fd5b50638b78c6d819546040516001600160a01b03909116815260200161015c565b3480156102a857600080fd5b506101fc6102b7366004610e9b565b61072d565b3480156102c857600080fd5b506101fc6102d7366004610f66565b6107ee565b3480156102e857600080fd5b506101a26102f7366004610fa2565b679a31110384e0b0c96020526014919091526000526034600c205490565b34801561032157600080fd5b50610152610330366004610fd5565b6001600160a01b031660009081526020819052604090205490565b6101fc610359366004610fd5565b610844565b34801561036a57600080fd5b506101fc610379366004610ff0565b610884565b6101fc61038c366004610fd5565b6109f4565b34801561039d57600080fd5b506101526103ac366004610fd5565b63389a75e1600c908152600091909152602090205490565b60606040518060800160405280604b8152602001611090604b913992915050565b60006202a30067ffffffffffffffff164201905063389a75e1600c5233600052806020600c2055337fdbf36a107da19e49527a7176a1babf963b4b0ff8cde35ee35d6cd8f1f9ac7e1d600080a250565b82851461044a57633b800a466000526004601cfd5b8760601b679a31110384e0b0c9178760601b679a31110384e0b0c917816020528160601c99508060601c9850886104895763ea553b346000526004601cfd5b8933146104ac57336000526034600c20546104ac57634b6e7f186000526004601cfd5b8660051b60005b81811461051d578088013584602052818b013560005260406000208054808311156104e65763f4d678b86000526004601cfd5b829003905560208490526040600020805480830181811015610510576301336cea6000526004601cfd5b90915550506020016104b3565b50505050604051604081528560051b602001604082018160208a03823760408201602084810191909152600587901b01910181601f198801823701819003888a337f4a39dc06d4c0dbc64b70af90fd698a233a518aa5d07e595d983b8c0526c8f7fb8486a4505061058c600090565b156105a1576105a18888888888888888610a1b565b863b15610663578660005260405163bc197c81815233602082015288604082015260a060608201528560051b60200160c082018160208a0382378160a00180608085015282820191508660051b602001925082602089038337820160a084015260208401910181601f1986018237601c830182820103915050602060405182601c8501600080515af1610643573d1561063e573d6000803e3d6000fd5b600082525b50805163bc197c8160e01b1461066157639c05499b6000526004601cfd5b505b5050505050505050565b606083821461068457633b800a466000526004601cfd5b6040519050818152602081018260051b81810160405260005b8181146106d257679a31110384e0b0c98882013560601b1760209081528682013560009081526040902054848301520161069d565b505050949350505050565b63389a75e1600c523360005260006020600c2055337ffa7b8eab7da67f412cc9575ed43464468f9bfbae89d1675917346ca6d8fe3c92600080a2565b610721610a20565b61072b6000610a3b565b565b610735610a20565b6001600160a01b038316600090815260208190526040902054600a9061075c908490611068565b11156107ae5760405162461bcd60e51b815260206004820152601f60248201527f4578636565647320746f6b656e206c696d697420666f72206164647265737300604482015260640160405180910390fd5b6001600160a01b038316600090815260208190526040812080548492906107d6908490611068565b909155506107e990508360018484610a79565b505050565b8015159050679a31110384e0b0c96020523360145281600052806034600c2055806000528160601b60601c337f17307eab39ab6107e8899845ad3d59bd9653f200f220920489ca2b5937696c3160206000a35050565b61084c610a20565b63389a75e1600c52806000526020600c20805442111561087457636f5e88186000526004601cfd5b6000905561088181610a3b565b50565b8560601b679a31110384e0b0c9178560601b679a31110384e0b0c917816020528160601c97508060601c9650866108c35763ea553b346000526004601cfd5b8733146108e657336000526034600c20546108e657634b6e7f186000526004601cfd5b85600052604060002091508154808611156109095763f4d678b86000526004601cfd5b8581038355508060205260406000209150815485810181811015610935576301336cea6000526004601cfd5b909255505060208390528486337fc3d58168c5ae7397731d063d5bbf3d657854427343f4c083240f7aacaa2d0f6260406000a4843b156109ec5760405163f23a6e61815233602082015286604082015284606082015283608082015260a080820152816020016020840360c08301376020818360c401601c840160008a5af16109cd573d156109c8573d6000803e3d6000fd5b600081525b805163f23a6e6160e01b146109ea57639c05499b6000526004601cfd5b505b505050505050565b6109fc610a20565b8060601b610a1257637448fbae6000526004601cfd5b61088181610a3b565b610663565b638b78c6d81954331461072b576382b429006000526004601cfd5b638b78c6d81980546001600160a01b039092169182907f8be0079c531659141344cd1fd0a4f28419497f9722a3daafe3b4186f6b6457e0600080a355565b610a84565b50505050565b8360601b80610a9b5763ea553b346000526004601cfd5b679a31110384e0b0c960205284601452836000526040600020805484810181811015610acf576301336cea6000526004601cfd5b80835550505083600052826020528060601c6000337fc3d58168c5ae7397731d063d5bbf3d657854427343f4c083240f7aacaa2d0f6260406000a450833b15610a7e57610a7e60008585858560405163f23a6e6181523360208201528560601b60601c604082015283606082015282608082015260a08082015281518060c08301528015610b67578060e08301826020860160045afa505b6020828260c401601c850160008a5af1610b90573d15610b8b573d6000803e3d6000fd5b600082525b50805163f23a6e6160e01b146109ec57639c05499b6000526004601cfd5b80356001600160a01b0381168114610bc557600080fd5b919050565b60008060408385031215610bdd57600080fd5b610be683610bae565b946020939093013593505050565b600060208284031215610c0657600080fd5b81356001600160e01b031981168114610c1e57600080fd5b9392505050565b600060208284031215610c3757600080fd5b5035919050565b600060208083528351808285015260005b81811015610c6b57858101830151858201604001528201610c4f565b506000604082860101526040601f19601f8301168501019250505092915050565b60008083601f840112610c9e57600080fd5b50813567ffffffffffffffff811115610cb657600080fd5b6020830191508360208260051b8501011115610cd157600080fd5b9250929050565b60008083601f840112610cea57600080fd5b50813567ffffffffffffffff811115610d0257600080fd5b602083019150836020828501011115610cd157600080fd5b60008060008060008060008060a0898b031215610d3657600080fd5b610d3f89610bae565b9750610d4d60208a01610bae565b9650604089013567ffffffffffffffff80821115610d6a57600080fd5b610d768c838d01610c8c565b909850965060608b0135915080821115610d8f57600080fd5b610d9b8c838d01610c8c565b909650945060808b0135915080821115610db457600080fd5b50610dc18b828c01610cd8565b999c989b5096995094979396929594505050565b60008060008060408587031215610deb57600080fd5b843567ffffffffffffffff80821115610e0357600080fd5b610e0f88838901610c8c565b90965094506020870135915080821115610e2857600080fd5b50610e3587828801610c8c565b95989497509550505050565b6020808252825182820181905260009190848201906040850190845b81811015610e7957835183529284019291840191600101610e5d565b50909695505050505050565b634e487b7160e01b600052604160045260246000fd5b600080600060608486031215610eb057600080fd5b610eb984610bae565b925060208401359150604084013567ffffffffffffffff80821115610edd57600080fd5b818601915086601f830112610ef157600080fd5b813581811115610f0357610f03610e85565b604051601f8201601f19908116603f01168101908382118183101715610f2b57610f2b610e85565b81604052828152896020848701011115610f4457600080fd5b8260208601602083013760006020848301015280955050505050509250925092565b60008060408385031215610f7957600080fd5b610f8283610bae565b915060208301358015158114610f9757600080fd5b809150509250929050565b60008060408385031215610fb557600080fd5b610fbe83610bae565b9150610fcc60208401610bae565b90509250929050565b600060208284031215610fe757600080fd5b610c1e82610bae565b60008060008060008060a0878903121561100957600080fd5b61101287610bae565b955061102060208801610bae565b94506040870135935060608701359250608087013567ffffffffffffffff81111561104a57600080fd5b61105689828a01610cd8565b979a9699509497509295939492505050565b8082018082111561108957634e487b7160e01b600052601160045260246000fd5b9291505056fe68747470733a2f2f676174657761792e697066732e696f2f697066732f516d5261696a6277355336324b5a625a7146757a466f766e346f76765659567771544a686f673637774169577665a2646970667358221220a55f04d3a0d9e4ff5e25a70b0acb2396aca02a3ad7b8ab5efff179d403bbce2564736f6c63430008130033",
        "nonce": "0x1fc",
        "accessList": []
      },
      "additionalContracts": [],
      "isFixedGasLimit": false
    },
    {
      "hash": "0x633fe0fab99e70d7e13261b1d1f9cd2a278c8f224102089168bf2d7f241a6804",
      "transactionType": "CALL",
      "contractName": "RedeemableCapsule",
      "contractAddress": "0x840748F7Fd3EA956E5f4c88001da5CC1ABCBc038",
      "function": "mint(address,uint256,bytes)",
      "arguments": [
        "0xf39Fd6e51aad88F6F4ce6aB8827279cffFb92266",
        "1",
        "0x"
      ],
      "transaction": {
        "type": "0x02",
        "from": "0xf39fd6e51aad88f6f4ce6ab8827279cfffb92266",
        "to": "0x840748f7fd3ea956e5f4c88001da5cc1abcbc038",
        "gas": "0x18567",
        "value": "0x0",
        "data": "0x94d008ef000000000000000000000000f39fd6e51aad88f6f4ce6ab8827279cfffb92266000000000000000000000000000000000000000000000000000000000000000100000000000000000000000000000000000000000000000000000000000000600000000000000000000000000000000000000000000000000000000000000000",
        "nonce": "0x1fd",
        "accessList": []
      },
      "additionalContracts": [],
      "isFixedGasLimit": false
    },
    {
      "hash": "0x882555fc687d182f3b04f295a5b97c7cfcc91c2b3d648390c6f7993edfe6ef60",
      "transactionType": "CALL",
      "contractName": "RedeemableCapsule",
      "contractAddress": "0x840748F7Fd3EA956E5f4c88001da5CC1ABCBc038",
      "function": "safeTransferFrom(address,address,uint256,uint256,bytes)",
      "arguments": [
        "0xf39Fd6e51aad88F6F4ce6aB8827279cffFb92266",
        "0x000000000000000000000000000000000000dEaD",
        "1",
        "1",
        "0x"
      ],
      "transaction": {
        "type": "0x02",
        "from": "0xf39fd6e51aad88f6f4ce6ab8827279cfffb92266",
        "to": "0x840748f7fd3ea956e5f4c88001da5cc1abcbc038",
        "gas": "0x120d0",
        "value": "0x0",
        "data": "0xf242432a000000000000000000000000f39fd6e51aad88f6f4ce6ab8827279cfffb92266000000000000000000000000000000000000000000000000000000000000dead0000000000000000000000000000000000000000000000000000000000000001000000000000000000000000000000000000000000000000000000000000000100000000000000000000000000000000000000000000000000000000000000a00000000000000000000000000000000000000000000000000000000000000000",
        "nonce": "0x1fe",
        "accessList": []
      },
      "additionalContracts": [],
      "isFixedGasLimit": false
    }
  ],
  "receipts": [
    {
      "transactionHash": "0x13a30e37acc2cd30ee10e867a1392963a9c21d5bf5a616c2034a2b3abaf7298d",
      "transactionIndex": "0x0",
      "blockHash": "0xc1acc74f8b4bdd4229840108d401afb68656e96a92c79ccf4c3b645e09b8ea09",
      "blockNumber": "0x1143c88",
      "from": "0xf39Fd6e51aad88F6F4ce6aB8827279cffFb92266",
      "to": null,
      "cumulativeGasUsed": "0xf94ae",
      "gasUsed": "0xf94ae",
      "contractAddress": "0x840748F7Fd3EA956E5f4c88001da5CC1ABCBc038",
      "logs": [
        {
          "address": "0x840748F7Fd3EA956E5f4c88001da5CC1ABCBc038",
          "topics": [
            "0x8be0079c531659141344cd1fd0a4f28419497f9722a3daafe3b4186f6b6457e0",
            "0x0000000000000000000000000000000000000000000000000000000000000000",
            "0x000000000000000000000000f39fd6e51aad88f6f4ce6ab8827279cfffb92266"
          ],
          "data": "0x",
          "blockHash": "0xc1acc74f8b4bdd4229840108d401afb68656e96a92c79ccf4c3b645e09b8ea09",
          "blockNumber": "0x1143c88",
          "transactionHash": "0x13a30e37acc2cd30ee10e867a1392963a9c21d5bf5a616c2034a2b3abaf7298d",
          "transactionIndex": "0x0",
          "logIndex": "0x0",
          "removed": false
        }
      ],
      "status": "0x1",
      "logsBloom": "0x00000000000000000000000000000000000000000000010000800000000000000000000000002000000000000000000000000000000000000000000000000000000000000000000000000000000000000001000000000000000000000000000000000000020000000000000100000800000000000000000000000000000000400000000000000000000000000000000000000000000000000000000000000000000000000000000000000000000000000000000000000000000000000000000000000000000000200000000000000000000000002000000000000000000020001000000000000000000000000000000000000000000000000000000000000000",
      "type": "0x2",
      "effectiveGasPrice": "0xb2d05e02"
    },
    {
      "transactionHash": "0x633fe0fab99e70d7e13261b1d1f9cd2a278c8f224102089168bf2d7f241a6804",
      "transactionIndex": "0x0",
      "blockHash": "0xcdd4979adfb66525b008fedd1dce44ceae4ee715d47a39fe22adb79de6bd7668",
      "blockNumber": "0x1143c89",
      "from": "0xf39Fd6e51aad88F6F4ce6aB8827279cffFb92266",
      "to": "0x840748F7Fd3EA956E5f4c88001da5CC1ABCBc038",
      "cumulativeGasUsed": "0x119ed",
      "gasUsed": "0x119ed",
      "contractAddress": null,
      "logs": [
        {
          "address": "0x840748F7Fd3EA956E5f4c88001da5CC1ABCBc038",
          "topics": [
            "0xc3d58168c5ae7397731d063d5bbf3d657854427343f4c083240f7aacaa2d0f62",
            "0x000000000000000000000000f39fd6e51aad88f6f4ce6ab8827279cfffb92266",
            "0x0000000000000000000000000000000000000000000000000000000000000000",
            "0x000000000000000000000000f39fd6e51aad88f6f4ce6ab8827279cfffb92266"
          ],
          "data": "0x00000000000000000000000000000000000000000000000000000000000000010000000000000000000000000000000000000000000000000000000000000001",
          "blockHash": "0xcdd4979adfb66525b008fedd1dce44ceae4ee715d47a39fe22adb79de6bd7668",
          "blockNumber": "0x1143c89",
          "transactionHash": "0x633fe0fab99e70d7e13261b1d1f9cd2a278c8f224102089168bf2d7f241a6804",
          "transactionIndex": "0x0",
          "logIndex": "0x0",
          "removed": false
        }
      ],
      "status": "0x1",
      "logsBloom": "0x00000000000000000000000000000000000000000000010000000000000000000000000000002000000000000000000000000000000000000000000000002000000000000000000000000000000000000000000000000000000000000000000000000000020000000000000100000800000000000000000000000000000000000000000000000000000000000000000000000000000000000000000000000000000000000000000000000000000000000000000000000000000000000000000000000000000000200000000000000000000000002008000000000000000020001000000000000000000000000000000000000000000000000000080000000000",
      "type": "0x2",
      "effectiveGasPrice": "0xb2d05e02"
    },
    {
      "transactionHash": "0x882555fc687d182f3b04f295a5b97c7cfcc91c2b3d648390c6f7993edfe6ef60",
      "transactionIndex": "0x0",
      "blockHash": "0x00588f7f09c21e22b5dd1caa5b32884ae341cda2fd04a1655a4fb4dc09ae7f2f",
      "blockNumber": "0x1143c8a",
      "from": "0xf39Fd6e51aad88F6F4ce6aB8827279cffFb92266",
      "to": "0x840748F7Fd3EA956E5f4c88001da5CC1ABCBc038",
      "cumulativeGasUsed": "0xc57b",
      "gasUsed": "0xc57b",
      "contractAddress": null,
      "logs": [
        {
          "address": "0x840748F7Fd3EA956E5f4c88001da5CC1ABCBc038",
          "topics": [
            "0xc3d58168c5ae7397731d063d5bbf3d657854427343f4c083240f7aacaa2d0f62",
            "0x000000000000000000000000f39fd6e51aad88f6f4ce6ab8827279cfffb92266",
            "0x000000000000000000000000f39fd6e51aad88f6f4ce6ab8827279cfffb92266",
            "0x000000000000000000000000000000000000000000000000000000000000dead"
          ],
          "data": "0x00000000000000000000000000000000000000000000000000000000000000010000000000000000000000000000000000000000000000000000000000000001",
          "blockHash": "0x00588f7f09c21e22b5dd1caa5b32884ae341cda2fd04a1655a4fb4dc09ae7f2f",
          "blockNumber": "0x1143c8a",
          "transactionHash": "0x882555fc687d182f3b04f295a5b97c7cfcc91c2b3d648390c6f7993edfe6ef60",
          "transactionIndex": "0x0",
          "logIndex": "0x0",
          "removed": false
        }
      ],
      "status": "0x1",
      "logsBloom": "0x00000000000010000000000000000000000000000000010000000000000000000000000000002000000000000000000000000000000000000000000000002000000000000000000000000000000000000000000000000000000000000000000000000000000000000000000100000000000000000000000000000000000000000000000000000000000004000000000000000000000000000000000000000000000000000000000000000000000000000000000000000000000000000000000000000400000000200000000000000000000000002008000000000000000000001000000000000000000000000000000000000000000000000000080000000000",
      "type": "0x2",
      "effectiveGasPrice": "0xb2d05e02"
    }
  ],
  "libraries": [],
  "pending": [],
  "returns": {},
  "timestamp": 1694318147,
  "chain": 1,
  "multi": false,
  "commit": "72edd8c"
}