{
  "transactions": [
    {
      "hash": "0x0adecb932f938cdf9761c33b7f5fad05858c8af64329f6f5411b4802e9cb2057",
      "transactionType": "CREATE",
      "contractName": "RedeemableCapsule",
      "contractAddress": "0xbAfAbA6306Ead89Ce8329e71C26524B6d5CA2EDc",
      "function": null,
      "arguments": null,
      "transaction": {
        "type": "0x02",
        "from": "0xf39fd6e51aad88f6f4ce6ab8827279cfffb92266",
        "gas": "0x143716",
        "value": "0x0",
        "data": "0x608060405234801561001057600080fd5b5061001a3361001f565b61005b565b6001600160a01b0316638b78c6d8198190558060007f8be0079c531659141344cd1fd0a4f28419497f9722a3daafe3b4186f6b6457e08180a350565b6111088061006a6000396000f3fe6080604052600436106101135760003560e01c806389a89002116100a0578063ea66aeb311610064578063ea66aeb314610315578063f04e283e1461034b578063f242432a1461035e578063f2fde38b1461037e578063fee81cf41461039157600080fd5b806389a890021461025b5780638da5cb5b1461027057806394d008ef1461029c578063a22cb465146102bc578063e985e9c5146102dc57600080fd5b806325692962116100e757806325692962146101f45780632eb2c2d6146101fe5780634e1273f41461021e57806354d1f13d1461024b578063715018a61461025357600080fd5b8062fdd58e1461011857806301ffc9a714610165578063031bd4c4146101b25780630e89341c146101c7575b600080fd5b34801561012457600080fd5b50610152610133366004610bc2565b679a31110384e0b0c96020526014919091526000908152604090205490565b6040519081526020015b60405180910390f35b34801561017157600080fd5b506101a2610180366004610bec565b6301ffc9a760e09190911c90811463d9b67a26821417630e89341c9091141790565b604051901515815260200161015c565b3480156101be57600080fd5b50610152600a81565b3480156101d357600080fd5b506101e76101e2366004610c1d565b6103c4565b60405161015c9190610c36565b6101fc6103e5565b005b34801561020a57600080fd5b506101fc610219366004610d12565b610435565b34801561022a57600080fd5b5061023e610239366004610dcd565b61066d565b60405161015c9190610e39565b6101fc6106dd565b6101fc610719565b34801561026757600080fd5b50610152600181565b34801561027c57600080fd5b50638b78c6d819546040516001600160a01b03909116815260200161015c565b3480156102a857600080fd5b506101fc6102b7366004610e93565b61072d565b3480156102c857600080fd5b506101fc6102d7366004610f5e565b6107e6565b3480156102e857600080fd5b506101a26102f7366004610f9a565b679a31110384e0b0c96020526014919091526000526034600c205490565b34801561032157600080fd5b50610152610330366004610fcd565b6001600160a01b031660009081526020819052604090205490565b6101fc610359366004610fcd565b61083c565b34801561036a57600080fd5b506101fc610379366004610fe8565b61087c565b6101fc61038c366004610fcd565b6109ec565b34801561039d57600080fd5b506101526103ac366004610fcd565b63389a75e1600c908152600091909152602090205490565b60606040518060800160405280604b8152602001611088604b913992915050565b60006202a30067ffffffffffffffff164201905063389a75e1600c5233600052806020600c2055337fdbf36a107da19e49527a7176a1babf963b4b0ff8cde35ee35d6cd8f1f9ac7e1d600080a250565b82851461044a57633b800a466000526004601cfd5b8760601b679a31110384e0b0c9178760601b679a31110384e0b0c917816020528160601c99508060601c9850886104895763ea553b346000526004601cfd5b8933146104ac57336000526034600c20546104ac57634b6e7f186000526004601cfd5b8660051b60005b81811461051d578088013584602052818b013560005260406000208054808311156104e65763f4d678b86000526004601cfd5b829003905560208490526040600020805480830181811015610510576301336cea6000526004601cfd5b90915550506020016104b3565b50505050604051604081528560051b602001604082018160208a03823760408201602084810191909152600587901b01910181601f198801823701819003888a337f4a39dc06d4c0dbc64b70af90fd698a233a518aa5d07e595d983b8c0526c8f7fb8486a4505061058c600090565b156105a1576105a18888888888888888610a13565b863b15610663578660005260405163bc197c81815233602082015288604082015260a060608201528560051b60200160c082018160208a0382378160a00180608085015282820191508660051b602001925082602089038337820160a084015260208401910181601f1986018237601c830182820103915050602060405182601c8501600080515af1610643573d1561063e573d6000803e3d6000fd5b600082525b50805163bc197c8160e01b1461066157639c05499b6000526004601cfd5b505b5050505050505050565b606083821461068457633b800a466000526004601cfd5b6040519050818152602081018260051b81810160405260005b8181146106d257679a31110384e0b0c98882013560601b1760209081528682013560009081526040902054848301520161069d565b505050949350505050565b63389a75e1600c523360005260006020600c2055337ffa7b8eab7da67f412cc9575ed43464468f9bfbae89d1675917346ca6d8fe3c92600080a2565b610721610a18565b61072b6000610a33565b565b6001600160a01b038316600090815260208190526040902054600a90610754908490611060565b11156107a65760405162461bcd60e51b815260206004820152601f60248201527f4578636565647320746f6b656e206c696d697420666f72206164647265737300604482015260640160405180910390fd5b6001600160a01b038316600090815260208190526040812080548492906107ce908490611060565b909155506107e190508360018484610a71565b505050565b8015159050679a31110384e0b0c96020523360145281600052806034600c2055806000528160601b60601c337f17307eab39ab6107e8899845ad3d59bd9653f200f220920489ca2b5937696c3160206000a35050565b610844610a18565b63389a75e1600c52806000526020600c20805442111561086c57636f5e88186000526004601cfd5b6000905561087981610a33565b50565b8560601b679a31110384e0b0c9178560601b679a31110384e0b0c917816020528160601c97508060601c9650866108bb5763ea553b346000526004601cfd5b8733146108de57336000526034600c20546108de57634b6e7f186000526004601cfd5b85600052604060002091508154808611156109015763f4d678b86000526004601cfd5b858103835550806020526040600020915081548581018181101561092d576301336cea6000526004601cfd5b909255505060208390528486337fc3d58168c5ae7397731d063d5bbf3d657854427343f4c083240f7aacaa2d0f6260406000a4843b156109e45760405163f23a6e61815233602082015286604082015284606082015283608082015260a080820152816020016020840360c08301376020818360c401601c840160008a5af16109c5573d156109c0573d6000803e3d6000fd5b600081525b805163f23a6e6160e01b146109e257639c05499b6000526004601cfd5b505b505050505050565b6109f4610a18565b8060601b610a0a57637448fbae6000526004601cfd5b61087981610a33565b610663565b638b78c6d81954331461072b576382b429006000526004601cfd5b638b78c6d81980546001600160a01b039092169182907f8be0079c531659141344cd1fd0a4f28419497f9722a3daafe3b4186f6b6457e0600080a355565b610a7c565b50505050565b8360601b80610a935763ea553b346000526004601cfd5b679a31110384e0b0c960205284601452836000526040600020805484810181811015610ac7576301336cea6000526004601cfd5b80835550505083600052826020528060601c6000337fc3d58168c5ae7397731d063d5bbf3d657854427343f4c083240f7aacaa2d0f6260406000a450833b15610a7657610a7660008585858560405163f23a6e6181523360208201528560601b60601c604082015283606082015282608082015260a08082015281518060c08301528015610b5f578060e08301826020860160045afa505b6020828260c401601c850160008a5af1610b88573d15610b83573d6000803e3d6000fd5b600082525b50805163f23a6e6160e01b146109e457639c05499b6000526004601cfd5b80356001600160a01b0381168114610bbd57600080fd5b919050565b60008060408385031215610bd557600080fd5b610bde83610ba6565b946020939093013593505050565b600060208284031215610bfe57600080fd5b81356001600160e01b031981168114610c1657600080fd5b9392505050565b600060208284031215610c2f57600080fd5b5035919050565b600060208083528351808285015260005b81811015610c6357858101830151858201604001528201610c47565b506000604082860101526040601f19601f8301168501019250505092915050565b60008083601f840112610c9657600080fd5b50813567ffffffffffffffff811115610cae57600080fd5b6020830191508360208260051b8501011115610cc957600080fd5b9250929050565b60008083601f840112610ce257600080fd5b50813567ffffffffffffffff811115610cfa57600080fd5b602083019150836020828501011115610cc957600080fd5b60008060008060008060008060a0898b031215610d2e57600080fd5b610d3789610ba6565b9750610d4560208a01610ba6565b9650604089013567ffffffffffffffff80821115610d6257600080fd5b610d6e8c838d01610c84565b909850965060608b0135915080821115610d8757600080fd5b610d938c838d01610c84565b909650945060808b0135915080821115610dac57600080fd5b50610db98b828c01610cd0565b999c989b5096995094979396929594505050565b60008060008060408587031215610de357600080fd5b843567ffffffffffffffff80821115610dfb57600080fd5b610e0788838901610c84565b90965094506020870135915080821115610e2057600080fd5b50610e2d87828801610c84565b95989497509550505050565b6020808252825182820181905260009190848201906040850190845b81811015610e7157835183529284019291840191600101610e55565b50909695505050505050565b634e487b7160e01b600052604160045260246000fd5b600080600060608486031215610ea857600080fd5b610eb184610ba6565b925060208401359150604084013567ffffffffffffffff80821115610ed557600080fd5b818601915086601f830112610ee957600080fd5b813581811115610efb57610efb610e7d565b604051601f8201601f19908116603f01168101908382118183101715610f2357610f23610e7d565b81604052828152896020848701011115610f3c57600080fd5b8260208601602083013760006020848301015280955050505050509250925092565b60008060408385031215610f7157600080fd5b610f7a83610ba6565b915060208301358015158114610f8f57600080fd5b809150509250929050565b60008060408385031215610fad57600080fd5b610fb683610ba6565b9150610fc460208401610ba6565b90509250929050565b600060208284031215610fdf57600080fd5b610c1682610ba6565b60008060008060008060a0878903121561100157600080fd5b61100a87610ba6565b955061101860208801610ba6565b94506040870135935060608701359250608087013567ffffffffffffffff81111561104257600080fd5b61104e89828a01610cd0565b979a9699509497509295939492505050565b8082018082111561108157634e487b7160e01b600052601160045260246000fd5b9291505056fe68747470733a2f2f676174657761792e697066732e696f2f697066732f516d5261696a6277355336324b5a625a7146757a466f766e346f76765659567771544a686f673637774169577665a26469706673582212207d0963d5a8821303ebf63c6cd8fbb08c095b76fe917625406a8f415df50dd74164736f6c63430008130033",
        "nonce": "0xcf6",
        "accessList": []
      },
      "additionalContracts": [],
      "isFixedGasLimit": false
    },
    {
      "hash": "0x86512e9ea675d9a515fd10c290c589fe1a08b9a2cad06f9eb12ebe2a20b8cc2c",
      "transactionType": "CALL",
      "contractName": "RedeemableCapsule",
      "contractAddress": "0xbAfAbA6306Ead89Ce8329e71C26524B6d5CA2EDc",
      "function": "mint(address,uint256,bytes)",
      "arguments": [
        "0xf39Fd6e51aad88F6F4ce6aB8827279cffFb92266",
        "1",
        "0x"
      ],
      "transaction": {
        "type": "0x02",
        "from": "0xf39fd6e51aad88f6f4ce6ab8827279cfffb92266",
        "to": "0xbafaba6306ead89ce8329e71c26524b6d5ca2edc",
        "gas": "0x179d0",
        "value": "0x0",
        "data": "0x94d008ef000000000000000000000000f39fd6e51aad88f6f4ce6ab8827279cfffb92266000000000000000000000000000000000000000000000000000000000000000100000000000000000000000000000000000000000000000000000000000000600000000000000000000000000000000000000000000000000000000000000000",
        "nonce": "0xcf7",
        "accessList": []
      },
      "additionalContracts": [],
      "isFixedGasLimit": false
    },
    {
      "hash": "0xf05859a5abaccff5ec64cd5b1eec9f52bede3141f8cc1a03efb29af798d35f32",
      "transactionType": "CALL",
      "contractName": "RedeemableCapsule",
      "contractAddress": "0xbAfAbA6306Ead89Ce8329e71C26524B6d5CA2EDc",
      "function": "safeTransferFrom(address,address,uint256,uint256,bytes)",
      "arguments": [
        "0xf39Fd6e51aad88F6F4ce6aB8827279cffFb92266",
        "0x000000000000000000000000000000000000dEaD",
        "1",
        "1",
        "0x"
      ],
      "transaction": {
        "type": "0x02",
        "from": "0xf39fd6e51aad88f6f4ce6ab8827279cfffb92266",
        "to": "0xbafaba6306ead89ce8329e71c26524b6d5ca2edc",
        "gas": "0x120d0",
        "value": "0x0",
        "data": "0xf242432a000000000000000000000000f39fd6e51aad88f6f4ce6ab8827279cfffb92266000000000000000000000000000000000000000000000000000000000000dead0000000000000000000000000000000000000000000000000000000000000001000000000000000000000000000000000000000000000000000000000000000100000000000000000000000000000000000000000000000000000000000000a00000000000000000000000000000000000000000000000000000000000000000",
        "nonce": "0xcf8",
        "accessList": []
      },
      "additionalContracts": [],
      "isFixedGasLimit": false
    }
  ],
  "receipts": [
    {
      "transactionHash": "0x0adecb932f938cdf9761c33b7f5fad05858c8af64329f6f5411b4802e9cb2057",
      "transactionIndex": "0x0",
      "blockHash": "0xf3d5bdd898322372a5373ece50392c437d654751dc02448888ab663cf0381701",
      "blockNumber": "0x40fc8c",
      "from": "0xf39Fd6e51aad88F6F4ce6aB8827279cffFb92266",
      "to": null,
      "cumulativeGasUsed": "0xf8dee",
      "gasUsed": "0xf8dee",
      "contractAddress": "0xbAfAbA6306Ead89Ce8329e71C26524B6d5CA2EDc",
      "logs": [
        {
          "address": "0xbAfAbA6306Ead89Ce8329e71C26524B6d5CA2EDc",
          "topics": [
            "0x8be0079c531659141344cd1fd0a4f28419497f9722a3daafe3b4186f6b6457e0",
            "0x0000000000000000000000000000000000000000000000000000000000000000",
            "0x000000000000000000000000f39fd6e51aad88f6f4ce6ab8827279cfffb92266"
          ],
          "data": "0x",
          "blockHash": "0xf3d5bdd898322372a5373ece50392c437d654751dc02448888ab663cf0381701",
          "blockNumber": "0x40fc8c",
          "transactionHash": "0x0adecb932f938cdf9761c33b7f5fad05858c8af64329f6f5411b4802e9cb2057",
          "transactionIndex": "0x0",
          "logIndex": "0x0",
          "transactionLogIndex": "0x0",
          "removed": false
        }
      ],
      "status": "0x1",
      "logsBloom": "0x00000000000000000000000000000000000000000000000000800000000000000000000000000000000000000000000000000000000000000000000000000000000000000000000000000000000000000001000000000000000000000000000000000000020000000000000100080800000000000000000000000000000000400000000000000000000000000000000000000000000000000000000000000000000000000000000000000000000000000000000000000000000000000000000000000000000000200000000000012000000000002000000000000000000020000000000000000000000000000000000000000000000000000000000000000000",
      "type": "0x2",
      "effectiveGasPrice": "0xb2d05e08"
    },
    {
      "transactionHash": "0x86512e9ea675d9a515fd10c290c589fe1a08b9a2cad06f9eb12ebe2a20b8cc2c",
      "transactionIndex": "0x0",
      "blockHash": "0x45bdb04cdddf8afad86d2b0f1155de2f6dc9e723e9d893587051f2ca672f0b9f",
      "blockNumber": "0x40fc8d",
      "from": "0xf39Fd6e51aad88F6F4ce6aB8827279cffFb92266",
      "to": "0xbAfAbA6306Ead89Ce8329e71C26524B6d5CA2EDc",
      "cumulativeGasUsed": "0x11188",
      "gasUsed": "0x11188",
      "contractAddress": null,
      "logs": [
        {
          "address": "0xbAfAbA6306Ead89Ce8329e71C26524B6d5CA2EDc",
          "topics": [
            "0xc3d58168c5ae7397731d063d5bbf3d657854427343f4c083240f7aacaa2d0f62",
            "0x000000000000000000000000f39fd6e51aad88f6f4ce6ab8827279cfffb92266",
            "0x0000000000000000000000000000000000000000000000000000000000000000",
            "0x000000000000000000000000f39fd6e51aad88f6f4ce6ab8827279cfffb92266"
          ],
          "data": "0x00000000000000000000000000000000000000000000000000000000000000010000000000000000000000000000000000000000000000000000000000000001",
          "blockHash": "0x45bdb04cdddf8afad86d2b0f1155de2f6dc9e723e9d893587051f2ca672f0b9f",
          "blockNumber": "0x40fc8d",
          "transactionHash": "0x86512e9ea675d9a515fd10c290c589fe1a08b9a2cad06f9eb12ebe2a20b8cc2c",
          "transactionIndex": "0x0",
          "logIndex": "0x0",
          "transactionLogIndex": "0x0",
          "removed": false
        }
      ],
      "status": "0x1",
      "logsBloom": "0x00000000000000000000000000000000000000000000000000000000000000000000000000000000000000000000000000000000000000000000000000002000000000000000000000000000000000000000000000000000000000000000000000000000020000000000000100080800000000000000000000000000000000000000000000000000000000000000000000000000000000000000000000000000000000000000000000000000000000000000000000000000000000000000000000000000000000200000000000012000000000002008000000000000000020000000000000000000000000000000000000000000000000000000080000000000",
      "type": "0x2",
      "effectiveGasPrice": "0xb2d05e08"
    },
    {
      "transactionHash": "0xf05859a5abaccff5ec64cd5b1eec9f52bede3141f8cc1a03efb29af798d35f32",
      "transactionIndex": "0x1",
      "blockHash": "0x45bdb04cdddf8afad86d2b0f1155de2f6dc9e723e9d893587051f2ca672f0b9f",
      "blockNumber": "0x40fc8d",
      "from": "0xf39Fd6e51aad88F6F4ce6aB8827279cffFb92266",
      "to": "0xbAfAbA6306Ead89Ce8329e71C26524B6d5CA2EDc",
      "cumulativeGasUsed": "0x1d703",
      "gasUsed": "0xc57b",
      "contractAddress": null,
      "logs": [
        {
          "address": "0xbAfAbA6306Ead89Ce8329e71C26524B6d5CA2EDc",
          "topics": [
            "0xc3d58168c5ae7397731d063d5bbf3d657854427343f4c083240f7aacaa2d0f62",
            "0x000000000000000000000000f39fd6e51aad88f6f4ce6ab8827279cfffb92266",
            "0x000000000000000000000000f39fd6e51aad88f6f4ce6ab8827279cfffb92266",
            "0x000000000000000000000000000000000000000000000000000000000000dead"
          ],
          "data": "0x00000000000000000000000000000000000000000000000000000000000000010000000000000000000000000000000000000000000000000000000000000001",
          "blockHash": "0x45bdb04cdddf8afad86d2b0f1155de2f6dc9e723e9d893587051f2ca672f0b9f",
          "blockNumber": "0x40fc8d",
          "transactionHash": "0xf05859a5abaccff5ec64cd5b1eec9f52bede3141f8cc1a03efb29af798d35f32",
          "transactionIndex": "0x1",
          "logIndex": "0x1",
          "transactionLogIndex": "0x0",
          "removed": false
        }
      ],
      "status": "0x1",
      "logsBloom": "0x00000000000010000000000000000000000000000000000000000000000000000000000000000000000000000000000000000000000000000000000000002000000000000000000000000000000000000000000000000000000000000000000000000000000000000000000100080000000000000000000000000000000000000000000000000000000004000000000000000000000000000000000000000000000000000000000000000000000000000000000000000000000000000000000000000400000000200000000000012000000000002008000000000000000000000000000000000000000000000000000000000000000000000000080000000000",
      "type": "0x2",
      "effectiveGasPrice": "0xb2d05e08"
    }
  ],
  "libraries": [],
  "pending": [],
  "returns": {},
  "timestamp": 1694327009,
  "chain": 31337,
  "multi": false,
  "commit": "e024540"
}